{
  "contractName": "NftMarketplace",
  "abi": [
    {
      "inputs": [],
      "stateMutability": "nonpayable",
      "type": "constructor"
    },
    {
      "anonymous": false,
      "inputs": [
        {
          "indexed": true,
          "internalType": "address",
          "name": "owner",
          "type": "address"
        },
        {
          "indexed": true,
          "internalType": "address",
          "name": "approved",
          "type": "address"
        },
        {
          "indexed": true,
          "internalType": "uint256",
          "name": "tokenId",
          "type": "uint256"
        }
      ],
      "name": "Approval",
      "type": "event"
    },
    {
      "anonymous": false,
      "inputs": [
        {
          "indexed": true,
          "internalType": "address",
          "name": "owner",
          "type": "address"
        },
        {
          "indexed": true,
          "internalType": "address",
          "name": "operator",
          "type": "address"
        },
        {
          "indexed": false,
          "internalType": "bool",
          "name": "approved",
          "type": "bool"
        }
      ],
      "name": "ApprovalForAll",
      "type": "event"
    },
    {
      "anonymous": false,
      "inputs": [
        {
          "indexed": false,
          "internalType": "uint256",
          "name": "_fromTokenId",
          "type": "uint256"
        },
        {
          "indexed": false,
          "internalType": "uint256",
          "name": "_toTokenId",
          "type": "uint256"
        }
      ],
      "name": "BatchMetadataUpdate",
      "type": "event"
    },
    {
      "anonymous": false,
      "inputs": [
        {
          "indexed": false,
          "internalType": "uint256",
          "name": "_tokenId",
          "type": "uint256"
        }
      ],
      "name": "MetadataUpdate",
      "type": "event"
    },
    {
      "anonymous": false,
      "inputs": [
        {
          "indexed": true,
          "internalType": "uint256",
          "name": "tokenId",
          "type": "uint256"
        },
        {
          "indexed": false,
          "internalType": "address",
          "name": "owner",
          "type": "address"
        },
        {
          "indexed": false,
          "internalType": "address",
          "name": "seller",
          "type": "address"
        },
        {
          "indexed": false,
          "internalType": "uint256",
          "name": "price",
          "type": "uint256"
        },
        {
          "indexed": false,
          "internalType": "bool",
          "name": "currentlyListed",
          "type": "bool"
        }
      ],
      "name": "TokenListedSuccess",
      "type": "event"
    },
    {
      "anonymous": false,
      "inputs": [
        {
          "indexed": true,
          "internalType": "address",
          "name": "from",
          "type": "address"
        },
        {
          "indexed": true,
          "internalType": "address",
          "name": "to",
          "type": "address"
        },
        {
          "indexed": true,
          "internalType": "uint256",
          "name": "tokenId",
          "type": "uint256"
        }
      ],
      "name": "Transfer",
      "type": "event"
    },
    {
      "inputs": [
        {
          "internalType": "address",
          "name": "to",
          "type": "address"
        },
        {
          "internalType": "uint256",
          "name": "tokenId",
          "type": "uint256"
        }
      ],
      "name": "approve",
      "outputs": [],
      "stateMutability": "nonpayable",
      "type": "function"
    },
    {
      "inputs": [
        {
          "internalType": "address",
          "name": "owner",
          "type": "address"
        }
      ],
      "name": "balanceOf",
      "outputs": [
        {
          "internalType": "uint256",
          "name": "",
          "type": "uint256"
        }
      ],
      "stateMutability": "view",
      "type": "function",
      "constant": true
    },
    {
      "inputs": [
        {
          "internalType": "uint256",
          "name": "tokenId",
          "type": "uint256"
        }
      ],
      "name": "getApproved",
      "outputs": [
        {
          "internalType": "address",
          "name": "",
          "type": "address"
        }
      ],
      "stateMutability": "view",
      "type": "function",
      "constant": true
    },
    {
      "inputs": [
        {
          "internalType": "address",
          "name": "owner",
          "type": "address"
        },
        {
          "internalType": "address",
          "name": "operator",
          "type": "address"
        }
      ],
      "name": "isApprovedForAll",
      "outputs": [
        {
          "internalType": "bool",
          "name": "",
          "type": "bool"
        }
      ],
      "stateMutability": "view",
      "type": "function",
      "constant": true
    },
    {
      "inputs": [],
      "name": "name",
      "outputs": [
        {
          "internalType": "string",
          "name": "",
          "type": "string"
        }
      ],
      "stateMutability": "view",
      "type": "function",
      "constant": true
    },
    {
      "inputs": [
        {
          "internalType": "uint256",
          "name": "tokenId",
          "type": "uint256"
        }
      ],
      "name": "ownerOf",
      "outputs": [
        {
          "internalType": "address",
          "name": "",
          "type": "address"
        }
      ],
      "stateMutability": "view",
      "type": "function",
      "constant": true
    },
    {
      "inputs": [
        {
          "internalType": "address",
          "name": "from",
          "type": "address"
        },
        {
          "internalType": "address",
          "name": "to",
          "type": "address"
        },
        {
          "internalType": "uint256",
          "name": "tokenId",
          "type": "uint256"
        }
      ],
      "name": "safeTransferFrom",
      "outputs": [],
      "stateMutability": "nonpayable",
      "type": "function"
    },
    {
      "inputs": [
        {
          "internalType": "address",
          "name": "from",
          "type": "address"
        },
        {
          "internalType": "address",
          "name": "to",
          "type": "address"
        },
        {
          "internalType": "uint256",
          "name": "tokenId",
          "type": "uint256"
        },
        {
          "internalType": "bytes",
          "name": "data",
          "type": "bytes"
        }
      ],
      "name": "safeTransferFrom",
      "outputs": [],
      "stateMutability": "nonpayable",
      "type": "function"
    },
    {
      "inputs": [
        {
          "internalType": "address",
          "name": "operator",
          "type": "address"
        },
        {
          "internalType": "bool",
          "name": "approved",
          "type": "bool"
        }
      ],
      "name": "setApprovalForAll",
      "outputs": [],
      "stateMutability": "nonpayable",
      "type": "function"
    },
    {
      "inputs": [
        {
          "internalType": "bytes4",
          "name": "interfaceId",
          "type": "bytes4"
        }
      ],
      "name": "supportsInterface",
      "outputs": [
        {
          "internalType": "bool",
          "name": "",
          "type": "bool"
        }
      ],
      "stateMutability": "view",
      "type": "function",
      "constant": true
    },
    {
      "inputs": [],
      "name": "symbol",
      "outputs": [
        {
          "internalType": "string",
          "name": "",
          "type": "string"
        }
      ],
      "stateMutability": "view",
      "type": "function",
      "constant": true
    },
    {
      "inputs": [
        {
          "internalType": "uint256",
          "name": "tokenId",
          "type": "uint256"
        }
      ],
      "name": "tokenURI",
      "outputs": [
        {
          "internalType": "string",
          "name": "",
          "type": "string"
        }
      ],
      "stateMutability": "view",
      "type": "function",
      "constant": true
    },
    {
      "inputs": [
        {
          "internalType": "address",
          "name": "from",
          "type": "address"
        },
        {
          "internalType": "address",
          "name": "to",
          "type": "address"
        },
        {
          "internalType": "uint256",
          "name": "tokenId",
          "type": "uint256"
        }
      ],
      "name": "transferFrom",
      "outputs": [],
      "stateMutability": "nonpayable",
      "type": "function"
    },
    {
      "inputs": [
        {
          "internalType": "uint256",
          "name": "_listPrice",
          "type": "uint256"
        }
      ],
      "name": "updateListedPrice",
      "outputs": [],
      "stateMutability": "nonpayable",
      "type": "function"
    },
    {
      "inputs": [],
      "name": "getListPrice",
      "outputs": [
        {
          "internalType": "uint256",
          "name": "",
          "type": "uint256"
        }
      ],
      "stateMutability": "view",
      "type": "function",
      "constant": true
    },
    {
      "inputs": [],
      "name": "getLatestToIdToken",
      "outputs": [
        {
          "components": [
            {
              "internalType": "uint256",
              "name": "tokenId",
              "type": "uint256"
            },
            {
              "internalType": "uint256",
              "name": "price",
              "type": "uint256"
            },
            {
              "internalType": "address payable",
              "name": "owner",
              "type": "address"
            },
            {
              "internalType": "address payable",
              "name": "seller",
              "type": "address"
            },
            {
              "internalType": "bool",
              "name": "currentlyListed",
              "type": "bool"
            }
          ],
          "internalType": "struct NftMarketplace.ListedToken",
          "name": "",
          "type": "tuple"
        }
      ],
      "stateMutability": "view",
      "type": "function",
      "constant": true
    },
    {
      "inputs": [
        {
          "internalType": "string",
          "name": "tokenURI",
          "type": "string"
        },
        {
          "internalType": "uint256",
          "name": "price",
          "type": "uint256"
        }
      ],
      "name": "createToken",
      "outputs": [
        {
          "internalType": "uint256",
          "name": "",
          "type": "uint256"
        }
      ],
      "stateMutability": "nonpayable",
      "type": "function"
    },
    {
      "inputs": [],
      "name": "getAllNfts",
      "outputs": [
        {
          "components": [
            {
              "internalType": "uint256",
              "name": "tokenId",
              "type": "uint256"
            },
            {
              "internalType": "uint256",
              "name": "price",
              "type": "uint256"
            },
            {
              "internalType": "address payable",
              "name": "owner",
              "type": "address"
            },
            {
              "internalType": "address payable",
              "name": "seller",
              "type": "address"
            },
            {
              "internalType": "bool",
              "name": "currentlyListed",
              "type": "bool"
            }
          ],
          "internalType": "struct NftMarketplace.ListedToken[]",
          "name": "",
          "type": "tuple[]"
        }
      ],
      "stateMutability": "view",
      "type": "function",
      "constant": true
    },
    {
      "inputs": [],
      "name": "getMyNfts",
      "outputs": [
        {
          "components": [
            {
              "internalType": "uint256",
              "name": "tokenId",
              "type": "uint256"
            },
            {
              "internalType": "uint256",
              "name": "price",
              "type": "uint256"
            },
            {
              "internalType": "address payable",
              "name": "owner",
              "type": "address"
            },
            {
              "internalType": "address payable",
              "name": "seller",
              "type": "address"
            },
            {
              "internalType": "bool",
              "name": "currentlyListed",
              "type": "bool"
            }
          ],
          "internalType": "struct NftMarketplace.ListedToken[]",
          "name": "",
          "type": "tuple[]"
        }
      ],
      "stateMutability": "view",
      "type": "function",
      "constant": true
    }
  ],
  "bytecode": "0x608060405266038d7ea4c68000600a553480156200001c57600080fd5b506040518060400160405280600e81526020017f4e66744d61726b6574706c6163650000000000000000000000000000000000008152506040518060400160405280600381526020017f4e464d000000000000000000000000000000000000000000000000000000000081525081600090816200009a919062000370565b508060019081620000ac919062000370565b50505033600960006101000a81548173ffffffffffffffffffffffffffffffffffffffff021916908373ffffffffffffffffffffffffffffffffffffffff16021790555062000457565b600081519050919050565b7f4e487b7100000000000000000000000000000000000000000000000000000000600052604160045260246000fd5b7f4e487b7100000000000000000000000000000000000000000000000000000000600052602260045260246000fd5b600060028204905060018216806200017857607f821691505b6020821081036200018e576200018d62000130565b5b50919050565b60008190508160005260206000209050919050565b60006020601f8301049050919050565b600082821b905092915050565b600060088302620001f87fffffffffffffffffffffffffffffffffffffffffffffffffffffffffffffffff82620001b9565b620002048683620001b9565b95508019841693508086168417925050509392505050565b6000819050919050565b6000819050919050565b6000620002516200024b62000245846200021c565b62000226565b6200021c565b9050919050565b6000819050919050565b6200026d8362000230565b620002856200027c8262000258565b848454620001c6565b825550505050565b600090565b6200029c6200028d565b620002a981848462000262565b505050565b5b81811015620002d157620002c560008262000292565b600181019050620002af565b5050565b601f8211156200032057620002ea8162000194565b620002f584620001a9565b8101602085101562000305578190505b6200031d6200031485620001a9565b830182620002ae565b50505b505050565b600082821c905092915050565b6000620003456000198460080262000325565b1980831691505092915050565b600062000360838362000332565b9150826002028217905092915050565b6200037b82620000f6565b67ffffffffffffffff81111562000397576200039662000101565b5b620003a382546200015f565b620003b0828285620002d5565b600060209050601f831160018114620003e85760008415620003d3578287015190505b620003df858262000352565b8655506200044f565b601f198416620003f88662000194565b60005b828110156200042257848901518255600182019150602085019450602081019050620003fb565b868310156200044257848901516200043e601f89168262000332565b8355505b6001600288020188555050505b505050505050565b61394c80620004676000396000f3fe608060405234801561001057600080fd5b50600436106101215760003560e01c806368f1945f116100ad5780639e52ce14116100715780639e52ce141461031e578063a22cb4651461033a578063b88d4fde14610356578063c87b56dd14610372578063e985e9c5146103a257610121565b806368f1945f1461026457806370a082311461028257806372b3b620146102b2578063732e8d73146102e257806395d89b411461030057610121565b8063095ea7b3116100f4578063095ea7b3146101c257806323b872dd146101de57806342842e0e146101fa57806357bf1465146102165780636352211e1461023457610121565b806301ffc9a714610126578063047b07bf1461015657806306fdde0314610174578063081812fc14610192575b600080fd5b610140600480360381019061013b91906123b7565b6103d2565b60405161014d91906123ff565b60405180910390f35b61015e610433565b60405161016b919061259a565b60405180910390f35b61017c610701565b604051610189919061264c565b60405180910390f35b6101ac60048036038101906101a7919061269a565b610793565b6040516101b991906126e8565b60405180910390f35b6101dc60048036038101906101d7919061272f565b6107d9565b005b6101f860048036038101906101f3919061276f565b6108f0565b005b610214600480360381019061020f919061276f565b610950565b005b61021e610970565b60405161022b919061282a565b60405180910390f35b61024e6004803603810190610249919061269a565b610a85565b60405161025b91906126e8565b60405180910390f35b61026c610b0b565b6040516102799190612854565b60405180910390f35b61029c6004803603810190610297919061286f565b610b15565b6040516102a99190612854565b60405180910390f35b6102cc60048036038101906102c791906129d1565b610bcc565b6040516102d99190612854565b60405180910390f35b6102ea610c0e565b6040516102f7919061259a565b60405180910390f35b610308610dc0565b604051610315919061264c565b60405180910390f35b6103386004803603810190610333919061269a565b610e52565b005b610354600480360381019061034f9190612a59565b610eec565b005b610370600480360381019061036b9190612b3a565b610f02565b005b61038c6004803603810190610387919061269a565b610f64565b604051610399919061264c565b60405180910390f35b6103bc60048036038101906103b79190612bbd565b611076565b6040516103c991906123ff565b60405180910390f35b6000634906490660e01b7bffffffffffffffffffffffffffffffffffffffffffffffffffffffff1916827bffffffffffffffffffffffffffffffffffffffffffffffffffffffff1916148061042c575061042b8261110a565b5b9050919050565b6060600061044160076111ec565b90506000805b828110156104e7573373ffffffffffffffffffffffffffffffffffffffff16600b60006001846104779190612c2c565b815260200190815260200160002060020160009054906101000a900473ffffffffffffffffffffffffffffffffffffffff1673ffffffffffffffffffffffffffffffffffffffff16036104d4576001826104d19190612c2c565b91505b80806104df90612c60565b915050610447565b5060008167ffffffffffffffff811115610504576105036128a6565b5b60405190808252806020026020018201604052801561053d57816020015b61052a6122ee565b8152602001906001900390816105225790505b50905060005b838110156106f7573373ffffffffffffffffffffffffffffffffffffffff16600b60006001846105739190612c2c565b815260200190815260200160002060020160009054906101000a900473ffffffffffffffffffffffffffffffffffffffff1673ffffffffffffffffffffffffffffffffffffffff16036106e457600b60006001836105d19190612c2c565b81526020019081526020016000206040518060a001604052908160008201548152602001600182015481526020016002820160009054906101000a900473ffffffffffffffffffffffffffffffffffffffff1673ffffffffffffffffffffffffffffffffffffffff1673ffffffffffffffffffffffffffffffffffffffff1681526020016003820160009054906101000a900473ffffffffffffffffffffffffffffffffffffffff1673ffffffffffffffffffffffffffffffffffffffff1673ffffffffffffffffffffffffffffffffffffffff1681526020016003820160149054906101000a900460ff1615151515815250508282815181106106d8576106d7612ca8565b5b60200260200101819052505b80806106ef90612c60565b915050610543565b5080935050505090565b60606000805461071090612d06565b80601f016020809104026020016040519081016040528092919081815260200182805461073c90612d06565b80156107895780601f1061075e57610100808354040283529160200191610789565b820191906000526020600020905b81548152906001019060200180831161076c57829003601f168201915b5050505050905090565b600061079e826111fa565b6004600083815260200190815260200160002060009054906101000a900473ffffffffffffffffffffffffffffffffffffffff169050919050565b60006107e482610a85565b90508073ffffffffffffffffffffffffffffffffffffffff168373ffffffffffffffffffffffffffffffffffffffff1603610854576040517f08c379a000000000000000000000000000000000000000000000000000000000815260040161084b90612da9565b60405180910390fd5b8073ffffffffffffffffffffffffffffffffffffffff16610873611245565b73ffffffffffffffffffffffffffffffffffffffff1614806108a257506108a18161089c611245565b611076565b5b6108e1576040517f08c379a00000000000000000000000000000000000000000000000000000000081526004016108d890612e3b565b60405180910390fd5b6108eb838361124d565b505050565b6109016108fb611245565b82611306565b610940576040517f08c379a000000000000000000000000000000000000000000000000000000000815260040161093790612ecd565b60405180910390fd5b61094b83838361139b565b505050565b61096b83838360405180602001604052806000815250610f02565b505050565b6109786122ee565b600061098460076111ec565b9050600b60008281526020019081526020016000206040518060a001604052908160008201548152602001600182015481526020016002820160009054906101000a900473ffffffffffffffffffffffffffffffffffffffff1673ffffffffffffffffffffffffffffffffffffffff1673ffffffffffffffffffffffffffffffffffffffff1681526020016003820160009054906101000a900473ffffffffffffffffffffffffffffffffffffffff1673ffffffffffffffffffffffffffffffffffffffff1673ffffffffffffffffffffffffffffffffffffffff1681526020016003820160149054906101000a900460ff16151515158152505091505090565b600080610a9183611694565b9050600073ffffffffffffffffffffffffffffffffffffffff168173ffffffffffffffffffffffffffffffffffffffff1603610b02576040517f08c379a0000000000000000000000000000000000000000000000000000000008152600401610af990612f39565b60405180910390fd5b80915050919050565b6000600a54905090565b60008073ffffffffffffffffffffffffffffffffffffffff168273ffffffffffffffffffffffffffffffffffffffff1603610b85576040517f08c379a0000000000000000000000000000000000000000000000000000000008152600401610b7c90612fcb565b60405180910390fd5b600360008373ffffffffffffffffffffffffffffffffffffffff1673ffffffffffffffffffffffffffffffffffffffff168152602001908152602001600020549050919050565b6000610bd860076116d1565b6000610be460076111ec565b9050610bf033826116e7565b610bfa8185611705565b610c0481846117a9565b8091505092915050565b60606000610c1c60076111ec565b905060008167ffffffffffffffff811115610c3a57610c396128a6565b5b604051908082528060200260200182016040528015610c7357816020015b610c606122ee565b815260200190600190039081610c585790505b50905060005b82811015610db757600b6000600183610c929190612c2c565b81526020019081526020016000206040518060a001604052908160008201548152602001600182015481526020016002820160009054906101000a900473ffffffffffffffffffffffffffffffffffffffff1673ffffffffffffffffffffffffffffffffffffffff1673ffffffffffffffffffffffffffffffffffffffff1681526020016003820160009054906101000a900473ffffffffffffffffffffffffffffffffffffffff1673ffffffffffffffffffffffffffffffffffffffff1673ffffffffffffffffffffffffffffffffffffffff1681526020016003820160149054906101000a900460ff161515151581525050828281518110610d9957610d98612ca8565b5b60200260200101819052508080610daf90612c60565b915050610c79565b50809250505090565b606060018054610dcf90612d06565b80601f0160208091040260200160405190810160405280929190818152602001828054610dfb90612d06565b8015610e485780601f10610e1d57610100808354040283529160200191610e48565b820191906000526020600020905b815481529060010190602001808311610e2b57829003601f168201915b5050505050905090565b600960009054906101000a900473ffffffffffffffffffffffffffffffffffffffff1673ffffffffffffffffffffffffffffffffffffffff163373ffffffffffffffffffffffffffffffffffffffff1614610ee2576040517f08c379a0000000000000000000000000000000000000000000000000000000008152600401610ed99061305d565b60405180910390fd5b80600a8190555050565b610efe610ef7611245565b83836119ad565b5050565b610f13610f0d611245565b83611306565b610f52576040517f08c379a0000000000000000000000000000000000000000000000000000000008152600401610f4990612ecd565b60405180910390fd5b610f5e84848484611b19565b50505050565b6060610f6f826111fa565b6000600660008481526020019081526020016000208054610f8f90612d06565b80601f0160208091040260200160405190810160405280929190818152602001828054610fbb90612d06565b80156110085780601f10610fdd57610100808354040283529160200191611008565b820191906000526020600020905b815481529060010190602001808311610feb57829003601f168201915b505050505090506000611019611b75565b9050600081510361102e578192505050611071565b60008251111561106357808260405160200161104b9291906130b9565b60405160208183030381529060405292505050611071565b61106c84611b8c565b925050505b919050565b6000600560008473ffffffffffffffffffffffffffffffffffffffff1673ffffffffffffffffffffffffffffffffffffffff16815260200190815260200160002060008373ffffffffffffffffffffffffffffffffffffffff1673ffffffffffffffffffffffffffffffffffffffff16815260200190815260200160002060009054906101000a900460ff16905092915050565b60007f80ac58cd000000000000000000000000000000000000000000000000000000007bffffffffffffffffffffffffffffffffffffffffffffffffffffffff1916827bffffffffffffffffffffffffffffffffffffffffffffffffffffffff191614806111d557507f5b5e139f000000000000000000000000000000000000000000000000000000007bffffffffffffffffffffffffffffffffffffffffffffffffffffffff1916827bffffffffffffffffffffffffffffffffffffffffffffffffffffffff1916145b806111e557506111e482611bf4565b5b9050919050565b600081600001549050919050565b61120381611c5e565b611242576040517f08c379a000000000000000000000000000000000000000000000000000000000815260040161123990612f39565b60405180910390fd5b50565b600033905090565b816004600083815260200190815260200160002060006101000a81548173ffffffffffffffffffffffffffffffffffffffff021916908373ffffffffffffffffffffffffffffffffffffffff160217905550808273ffffffffffffffffffffffffffffffffffffffff166112c083610a85565b73ffffffffffffffffffffffffffffffffffffffff167f8c5be1e5ebec7d5bd14f71427d1e84f3dd0314c0f7b2291e5b200ac8c7c3b92560405160405180910390a45050565b60008061131283610a85565b90508073ffffffffffffffffffffffffffffffffffffffff168473ffffffffffffffffffffffffffffffffffffffff16148061135457506113538185611076565b5b8061139257508373ffffffffffffffffffffffffffffffffffffffff1661137a84610793565b73ffffffffffffffffffffffffffffffffffffffff16145b91505092915050565b8273ffffffffffffffffffffffffffffffffffffffff166113bb82610a85565b73ffffffffffffffffffffffffffffffffffffffff1614611411576040517f08c379a00000000000000000000000000000000000000000000000000000000081526004016114089061314f565b60405180910390fd5b600073ffffffffffffffffffffffffffffffffffffffff168273ffffffffffffffffffffffffffffffffffffffff1603611480576040517f08c379a0000000000000000000000000000000000000000000000000000000008152600401611477906131e1565b60405180910390fd5b61148d8383836001611c9f565b8273ffffffffffffffffffffffffffffffffffffffff166114ad82610a85565b73ffffffffffffffffffffffffffffffffffffffff1614611503576040517f08c379a00000000000000000000000000000000000000000000000000000000081526004016114fa9061314f565b60405180910390fd5b6004600082815260200190815260200160002060006101000a81549073ffffffffffffffffffffffffffffffffffffffff02191690556001600360008573ffffffffffffffffffffffffffffffffffffffff1673ffffffffffffffffffffffffffffffffffffffff168152602001908152602001600020600082825403925050819055506001600360008473ffffffffffffffffffffffffffffffffffffffff1673ffffffffffffffffffffffffffffffffffffffff16815260200190815260200160002060008282540192505081905550816002600083815260200190815260200160002060006101000a81548173ffffffffffffffffffffffffffffffffffffffff021916908373ffffffffffffffffffffffffffffffffffffffff160217905550808273ffffffffffffffffffffffffffffffffffffffff168473ffffffffffffffffffffffffffffffffffffffff167fddf252ad1be2c89b69c2b068fc378daa952ba7f163c4a11628f55a4df523b3ef60405160405180910390a461168f8383836001611ca5565b505050565b60006002600083815260200190815260200160002060009054906101000a900473ffffffffffffffffffffffffffffffffffffffff169050919050565b6001816000016000828254019250508190555050565b611701828260405180602001604052806000815250611cab565b5050565b61170e82611c5e565b61174d576040517f08c379a000000000000000000000000000000000000000000000000000000000815260040161174490613273565b60405180910390fd5b8060066000848152602001908152602001600020908161176d919061343f565b507ff8e1a15aba9398e019f0b49df1a4fde98ee17ae345cb5f6b5e2c27f5033e8ce78260405161179d9190612854565b60405180910390a15050565b600a543410156117ee576040517f08c379a00000000000000000000000000000000000000000000000000000000081526004016117e59061355d565b60405180910390fd5b60008111611831576040517f08c379a0000000000000000000000000000000000000000000000000000000008152600401611828906135c9565b60405180910390fd5b6040518060a001604052808381526020018281526020013073ffffffffffffffffffffffffffffffffffffffff1681526020013373ffffffffffffffffffffffffffffffffffffffff16815260200160011515815250600b6000848152602001908152602001600020600082015181600001556020820151816001015560408201518160020160006101000a81548173ffffffffffffffffffffffffffffffffffffffff021916908373ffffffffffffffffffffffffffffffffffffffff16021790555060608201518160030160006101000a81548173ffffffffffffffffffffffffffffffffffffffff021916908373ffffffffffffffffffffffffffffffffffffffff16021790555060808201518160030160146101000a81548160ff02191690831515021790555090505061196a333084610950565b817f9339409317fd01fabff48b703019016f49159bacc801ae872d2ca637d226e4c030338460016040516119a194939291906135e9565b60405180910390a25050565b8173ffffffffffffffffffffffffffffffffffffffff168373ffffffffffffffffffffffffffffffffffffffff1603611a1b576040517f08c379a0000000000000000000000000000000000000000000000000000000008152600401611a129061367a565b60405180910390fd5b80600560008573ffffffffffffffffffffffffffffffffffffffff1673ffffffffffffffffffffffffffffffffffffffff16815260200190815260200160002060008473ffffffffffffffffffffffffffffffffffffffff1673ffffffffffffffffffffffffffffffffffffffff16815260200190815260200160002060006101000a81548160ff0219169083151502179055508173ffffffffffffffffffffffffffffffffffffffff168373ffffffffffffffffffffffffffffffffffffffff167f17307eab39ab6107e8899845ad3d59bd9653f200f220920489ca2b5937696c3183604051611b0c91906123ff565b60405180910390a3505050565b611b2484848461139b565b611b3084848484611d06565b611b6f576040517f08c379a0000000000000000000000000000000000000000000000000000000008152600401611b669061370c565b60405180910390fd5b50505050565b606060405180602001604052806000815250905090565b6060611b97826111fa565b6000611ba1611b75565b90506000815111611bc15760405180602001604052806000815250611bec565b80611bcb84611e8d565b604051602001611bdc9291906130b9565b6040516020818303038152906040525b915050919050565b60007f01ffc9a7000000000000000000000000000000000000000000000000000000007bffffffffffffffffffffffffffffffffffffffffffffffffffffffff1916827bffffffffffffffffffffffffffffffffffffffffffffffffffffffff1916149050919050565b60008073ffffffffffffffffffffffffffffffffffffffff16611c8083611694565b73ffffffffffffffffffffffffffffffffffffffff1614159050919050565b50505050565b50505050565b611cb58383611f5b565b611cc26000848484611d06565b611d01576040517f08c379a0000000000000000000000000000000000000000000000000000000008152600401611cf89061370c565b60405180910390fd5b505050565b6000611d278473ffffffffffffffffffffffffffffffffffffffff16612178565b15611e80578373ffffffffffffffffffffffffffffffffffffffff1663150b7a02611d50611245565b8786866040518563ffffffff1660e01b8152600401611d729493929190613781565b6020604051808303816000875af1925050508015611dae57506040513d601f19601f82011682018060405250810190611dab91906137e2565b60015b611e30573d8060008114611dde576040519150601f19603f3d011682016040523d82523d6000602084013e611de3565b606091505b506000815103611e28576040517f08c379a0000000000000000000000000000000000000000000000000000000008152600401611e1f9061370c565b60405180910390fd5b805181602001fd5b63150b7a0260e01b7bffffffffffffffffffffffffffffffffffffffffffffffffffffffff1916817bffffffffffffffffffffffffffffffffffffffffffffffffffffffff191614915050611e85565b600190505b949350505050565b606060006001611e9c8461219b565b01905060008167ffffffffffffffff811115611ebb57611eba6128a6565b5b6040519080825280601f01601f191660200182016040528015611eed5781602001600182028036833780820191505090505b509050600082602001820190505b600115611f50578080600190039150507f3031323334353637383961626364656600000000000000000000000000000000600a86061a8153600a8581611f4457611f4361380f565b5b04945060008503611efb575b819350505050919050565b600073ffffffffffffffffffffffffffffffffffffffff168273ffffffffffffffffffffffffffffffffffffffff1603611fca576040517f08c379a0000000000000000000000000000000000000000000000000000000008152600401611fc19061388a565b60405180910390fd5b611fd381611c5e565b15612013576040517f08c379a000000000000000000000000000000000000000000000000000000000815260040161200a906138f6565b60405180910390fd5b612021600083836001611c9f565b61202a81611c5e565b1561206a576040517f08c379a0000000000000000000000000000000000000000000000000000000008152600401612061906138f6565b60405180910390fd5b6001600360008473ffffffffffffffffffffffffffffffffffffffff1673ffffffffffffffffffffffffffffffffffffffff16815260200190815260200160002060008282540192505081905550816002600083815260200190815260200160002060006101000a81548173ffffffffffffffffffffffffffffffffffffffff021916908373ffffffffffffffffffffffffffffffffffffffff160217905550808273ffffffffffffffffffffffffffffffffffffffff16600073ffffffffffffffffffffffffffffffffffffffff167fddf252ad1be2c89b69c2b068fc378daa952ba7f163c4a11628f55a4df523b3ef60405160405180910390a4612174600083836001611ca5565b5050565b6000808273ffffffffffffffffffffffffffffffffffffffff163b119050919050565b600080600090507a184f03e93ff9f4daa797ed6e38ed64bf6a1f01000000000000000083106121f9577a184f03e93ff9f4daa797ed6e38ed64bf6a1f01000000000000000083816121ef576121ee61380f565b5b0492506040810190505b6d04ee2d6d415b85acef81000000008310612236576d04ee2d6d415b85acef8100000000838161222c5761222b61380f565b5b0492506020810190505b662386f26fc10000831061226557662386f26fc10000838161225b5761225a61380f565b5b0492506010810190505b6305f5e100831061228e576305f5e10083816122845761228361380f565b5b0492506008810190505b61271083106122b35761271083816122a9576122a861380f565b5b0492506004810190505b606483106122d657606483816122cc576122cb61380f565b5b0492506002810190505b600a83106122e5576001810190505b80915050919050565b6040518060a001604052806000815260200160008152602001600073ffffffffffffffffffffffffffffffffffffffff168152602001600073ffffffffffffffffffffffffffffffffffffffff1681526020016000151581525090565b6000604051905090565b600080fd5b600080fd5b60007fffffffff0000000000000000000000000000000000000000000000000000000082169050919050565b6123948161235f565b811461239f57600080fd5b50565b6000813590506123b18161238b565b92915050565b6000602082840312156123cd576123cc612355565b5b60006123db848285016123a2565b91505092915050565b60008115159050919050565b6123f9816123e4565b82525050565b600060208201905061241460008301846123f0565b92915050565b600081519050919050565b600082825260208201905092915050565b6000819050602082019050919050565b6000819050919050565b61245981612446565b82525050565b600073ffffffffffffffffffffffffffffffffffffffff82169050919050565b600061248a8261245f565b9050919050565b61249a8161247f565b82525050565b6124a9816123e4565b82525050565b60a0820160008201516124c56000850182612450565b5060208201516124d86020850182612450565b5060408201516124eb6040850182612491565b5060608201516124fe6060850182612491565b50608082015161251160808501826124a0565b50505050565b600061252383836124af565b60a08301905092915050565b6000602082019050919050565b60006125478261241a565b6125518185612425565b935061255c83612436565b8060005b8381101561258d5781516125748882612517565b975061257f8361252f565b925050600181019050612560565b5085935050505092915050565b600060208201905081810360008301526125b4818461253c565b905092915050565b600081519050919050565b600082825260208201905092915050565b60005b838110156125f65780820151818401526020810190506125db565b60008484015250505050565b6000601f19601f8301169050919050565b600061261e826125bc565b61262881856125c7565b93506126388185602086016125d8565b61264181612602565b840191505092915050565b600060208201905081810360008301526126668184612613565b905092915050565b61267781612446565b811461268257600080fd5b50565b6000813590506126948161266e565b92915050565b6000602082840312156126b0576126af612355565b5b60006126be84828501612685565b91505092915050565b60006126d28261245f565b9050919050565b6126e2816126c7565b82525050565b60006020820190506126fd60008301846126d9565b92915050565b61270c816126c7565b811461271757600080fd5b50565b60008135905061272981612703565b92915050565b6000806040838503121561274657612745612355565b5b60006127548582860161271a565b925050602061276585828601612685565b9150509250929050565b60008060006060848603121561278857612787612355565b5b60006127968682870161271a565b93505060206127a78682870161271a565b92505060406127b886828701612685565b9150509250925092565b60a0820160008201516127d86000850182612450565b5060208201516127eb6020850182612450565b5060408201516127fe6040850182612491565b5060608201516128116060850182612491565b50608082015161282460808501826124a0565b50505050565b600060a08201905061283f60008301846127c2565b92915050565b61284e81612446565b82525050565b60006020820190506128696000830184612845565b92915050565b60006020828403121561288557612884612355565b5b60006128938482850161271a565b91505092915050565b600080fd5b600080fd5b7f4e487b7100000000000000000000000000000000000000000000000000000000600052604160045260246000fd5b6128de82612602565b810181811067ffffffffffffffff821117156128fd576128fc6128a6565b5b80604052505050565b600061291061234b565b905061291c82826128d5565b919050565b600067ffffffffffffffff82111561293c5761293b6128a6565b5b61294582612602565b9050602081019050919050565b82818337600083830152505050565b600061297461296f84612921565b612906565b9050828152602081018484840111156129905761298f6128a1565b5b61299b848285612952565b509392505050565b600082601f8301126129b8576129b761289c565b5b81356129c8848260208601612961565b91505092915050565b600080604083850312156129e8576129e7612355565b5b600083013567ffffffffffffffff811115612a0657612a0561235a565b5b612a12858286016129a3565b9250506020612a2385828601612685565b9150509250929050565b612a36816123e4565b8114612a4157600080fd5b50565b600081359050612a5381612a2d565b92915050565b60008060408385031215612a7057612a6f612355565b5b6000612a7e8582860161271a565b9250506020612a8f85828601612a44565b9150509250929050565b600067ffffffffffffffff821115612ab457612ab36128a6565b5b612abd82612602565b9050602081019050919050565b6000612add612ad884612a99565b612906565b905082815260208101848484011115612af957612af86128a1565b5b612b04848285612952565b509392505050565b600082601f830112612b2157612b2061289c565b5b8135612b31848260208601612aca565b91505092915050565b60008060008060808587031215612b5457612b53612355565b5b6000612b628782880161271a565b9450506020612b738782880161271a565b9350506040612b8487828801612685565b925050606085013567ffffffffffffffff811115612ba557612ba461235a565b5b612bb187828801612b0c565b91505092959194509250565b60008060408385031215612bd457612bd3612355565b5b6000612be28582860161271a565b9250506020612bf38582860161271a565b9150509250929050565b7f4e487b7100000000000000000000000000000000000000000000000000000000600052601160045260246000fd5b6000612c3782612446565b9150612c4283612446565b9250828201905080821115612c5a57612c59612bfd565b5b92915050565b6000612c6b82612446565b91507fffffffffffffffffffffffffffffffffffffffffffffffffffffffffffffffff8203612c9d57612c9c612bfd565b5b600182019050919050565b7f4e487b7100000000000000000000000000000000000000000000000000000000600052603260045260246000fd5b7f4e487b7100000000000000000000000000000000000000000000000000000000600052602260045260246000fd5b60006002820490506001821680612d1e57607f821691505b602082108103612d3157612d30612cd7565b5b50919050565b7f4552433732313a20617070726f76616c20746f2063757272656e74206f776e6560008201527f7200000000000000000000000000000000000000000000000000000000000000602082015250565b6000612d936021836125c7565b9150612d9e82612d37565b604082019050919050565b60006020820190508181036000830152612dc281612d86565b9050919050565b7f4552433732313a20617070726f76652063616c6c6572206973206e6f7420746f60008201527f6b656e206f776e6572206f7220617070726f76656420666f7220616c6c000000602082015250565b6000612e25603d836125c7565b9150612e3082612dc9565b604082019050919050565b60006020820190508181036000830152612e5481612e18565b9050919050565b7f4552433732313a2063616c6c6572206973206e6f7420746f6b656e206f776e6560008201527f72206f7220617070726f76656400000000000000000000000000000000000000602082015250565b6000612eb7602d836125c7565b9150612ec282612e5b565b604082019050919050565b60006020820190508181036000830152612ee681612eaa565b9050919050565b7f4552433732313a20696e76616c696420746f6b656e2049440000000000000000600082015250565b6000612f236018836125c7565b9150612f2e82612eed565b602082019050919050565b60006020820190508181036000830152612f5281612f16565b9050919050565b7f4552433732313a2061646472657373207a65726f206973206e6f74206120766160008201527f6c6964206f776e65720000000000000000000000000000000000000000000000602082015250565b6000612fb56029836125c7565b9150612fc082612f59565b604082019050919050565b60006020820190508181036000830152612fe481612fa8565b9050919050565b7f4f6e6c79206f776e6572732063616e20757064617465206c697374696e67207060008201527f7269636500000000000000000000000000000000000000000000000000000000602082015250565b60006130476024836125c7565b915061305282612feb565b604082019050919050565b600060208201905081810360008301526130768161303a565b9050919050565b600081905092915050565b6000613093826125bc565b61309d818561307d565b93506130ad8185602086016125d8565b80840191505092915050565b60006130c58285613088565b91506130d18284613088565b91508190509392505050565b7f4552433732313a207472616e736665722066726f6d20696e636f72726563742060008201527f6f776e6572000000000000000000000000000000000000000000000000000000602082015250565b60006131396025836125c7565b9150613144826130dd565b604082019050919050565b600060208201905081810360008301526131688161312c565b9050919050565b7f4552433732313a207472616e7366657220746f20746865207a65726f2061646460008201527f7265737300000000000000000000000000000000000000000000000000000000602082015250565b60006131cb6024836125c7565b91506131d68261316f565b604082019050919050565b600060208201905081810360008301526131fa816131be565b9050919050565b7f45524337323155524953746f726167653a2055524920736574206f66206e6f6e60008201527f6578697374656e7420746f6b656e000000000000000000000000000000000000602082015250565b600061325d602e836125c7565b915061326882613201565b604082019050919050565b6000602082019050818103600083015261328c81613250565b9050919050565b60008190508160005260206000209050919050565b60006020601f8301049050919050565b600082821b905092915050565b6000600883026132f57fffffffffffffffffffffffffffffffffffffffffffffffffffffffffffffffff826132b8565b6132ff86836132b8565b95508019841693508086168417925050509392505050565b6000819050919050565b600061333c61333761333284612446565b613317565b612446565b9050919050565b6000819050919050565b61335683613321565b61336a61336282613343565b8484546132c5565b825550505050565b600090565b61337f613372565b61338a81848461334d565b505050565b5b818110156133ae576133a3600082613377565b600181019050613390565b5050565b601f8211156133f3576133c481613293565b6133cd846132a8565b810160208510156133dc578190505b6133f06133e8856132a8565b83018261338f565b50505b505050565b600082821c905092915050565b6000613416600019846008026133f8565b1980831691505092915050565b600061342f8383613405565b9150826002028217905092915050565b613448826125bc565b67ffffffffffffffff811115613461576134606128a6565b5b61346b8254612d06565b6134768282856133b2565b600060209050601f8311600181146134a95760008415613497578287015190505b6134a18582613423565b865550613509565b601f1984166134b786613293565b60005b828110156134df578489015182556001820191506020850194506020810190506134ba565b868310156134fc57848901516134f8601f891682613405565b8355505b6001600288020188555050505b505050505050565b7f4e6f7420656e6f7567682066756e647320746f206c6973742000000000000000600082015250565b60006135476019836125c7565b915061355282613511565b602082019050919050565b600060208201905081810360008301526135768161353a565b9050919050565b7f5072696365206f6620616e204e46542063616e6e6f74206265207a65726f0000600082015250565b60006135b3601e836125c7565b91506135be8261357d565b602082019050919050565b600060208201905081810360008301526135e2816135a6565b9050919050565b60006080820190506135fe60008301876126d9565b61360b60208301866126d9565b6136186040830185612845565b61362560608301846123f0565b95945050505050565b7f4552433732313a20617070726f766520746f2063616c6c657200000000000000600082015250565b60006136646019836125c7565b915061366f8261362e565b602082019050919050565b6000602082019050818103600083015261369381613657565b9050919050565b7f4552433732313a207472616e7366657220746f206e6f6e20455243373231526560008201527f63656976657220696d706c656d656e7465720000000000000000000000000000602082015250565b60006136f66032836125c7565b91506137018261369a565b604082019050919050565b60006020820190508181036000830152613725816136e9565b9050919050565b600081519050919050565b600082825260208201905092915050565b60006137538261372c565b61375d8185613737565b935061376d8185602086016125d8565b61377681612602565b840191505092915050565b600060808201905061379660008301876126d9565b6137a360208301866126d9565b6137b06040830185612845565b81810360608301526137c28184613748565b905095945050505050565b6000815190506137dc8161238b565b92915050565b6000602082840312156137f8576137f7612355565b5b6000613806848285016137cd565b91505092915050565b7f4e487b7100000000000000000000000000000000000000000000000000000000600052601260045260246000fd5b7f4552433732313a206d696e7420746f20746865207a65726f2061646472657373600082015250565b60006138746020836125c7565b915061387f8261383e565b602082019050919050565b600060208201905081810360008301526138a381613867565b9050919050565b7f4552433732313a20746f6b656e20616c7265616479206d696e74656400000000600082015250565b60006138e0601c836125c7565b91506138eb826138aa565b602082019050919050565b6000602082019050818103600083015261390f816138d3565b905091905056fea2646970667358221220a6ca165044909962755162a0218b0e7149ac09263336b94ded9cd0eea9652de064736f6c63430008130033",
  "immutableReferences": {},
  "source": "// SPDX-License-Identifier: MIT\npragma solidity <=0.8.19;\nimport \"@openzeppelin/contracts/utils/Counters.sol\";\nimport \"@openzeppelin/contracts/token/ERC721/extensions/ERC721URIStorage.sol\";\nimport \"@openzeppelin/contracts/token/ERC721/ERC721.sol\";\ncontract NftMarketplace is ERC721URIStorage {\n    using Counters for Counters.Counter;\n    Counters.Counter private _tokenIds;\n    Counters.Counter private _itemsSold;\n\n    address payable owner;\n    uint256 _listingPrice = 0.001 ether;\n\n    constructor() ERC721(\"NftMarketplace\", \"NFM\") {\n        owner = payable(msg.sender);\n    }\n\n    struct ListedToken {   \n        uint256 tokenId;\n        uint256 price;\n        address payable owner;\n        address payable seller;\n        bool currentlyListed;\n    }\n    event TokenListedSuccess(\n        uint256 indexed tokenId,\n        address owner,\n        address seller,\n        uint256 price,\n        bool currentlyListed\n    );\n\n    mapping(uint256=>ListedToken) private idToListedToken;\n\n    function updateListedPrice(uint256 _listPrice)public{\n        require(msg.sender == owner,\"Only owners can update listing price\");\n        _listingPrice = _listPrice;\n    }\n\n    function getListPrice() public view returns(uint256){\n        return _listingPrice;   \n    }\n\n    function getLatestToIdToken() public view returns(ListedToken memory){\n        uint256 currentId = _tokenIds.current();\n        return idToListedToken[currentId];\n    }\n    function createToken(string memory tokenURI, uint256 price) public returns(uint256){\n        _tokenIds.increment();\n        uint256 newTokenId = _tokenIds.current();\n\n        _safeMint(msg.sender, newTokenId);\n        _setTokenURI(newTokenId, tokenURI);\n        createListedToken(newTokenId,price);\n        return newTokenId;\n    }\n\n    function createListedToken(uint256 tokenId, uint256 price)private{\n        require(msg.value >= _listingPrice,\"Not enough funds to list \");\n        require(price>0,\"Price of an NFT cannot be zero\");\n\n        idToListedToken[tokenId] = ListedToken(\n        tokenId,\n        price,\n        payable(address(this)),\n        payable(msg.sender),\n        true\n        );\n\n        safeTransferFrom(msg.sender, address(this), tokenId);\n\n        emit TokenListedSuccess(\n        tokenId,\n        address(this),\n        msg.sender,\n        price,\n        true\n        );\n        \n    }\n    function getAllNfts() public view returns(ListedToken[] memory){\n        uint256 nftCount = _tokenIds.current();\n        ListedToken[] memory tokens = new ListedToken[](nftCount);\n\n        for(uint i =0;i<nftCount;i++){\n            // ListedToken memory currentItem = idToListedToken[i+1];\n            tokens[i] = idToListedToken[i+1];\n        }\n        return tokens;\n    }\n\n    function getMyNfts() public view returns(ListedToken[] memory){\n        uint256 totalItemCount = _tokenIds.current();\n        \n        uint256 count=0;\n        for( uint i =0;i<totalItemCount;i++){\n            if(idToListedToken[i+1].owner==msg.sender){\n                count+=1;\n            }\n        }\n        ListedToken[] memory tokens = new ListedToken[](count);\n        for(uint i =0;i<totalItemCount ; i++){\n            if(idToListedToken[i+1].owner==msg.sender){\n                tokens[i] = idToListedToken[i+1];\n            }\n        }\n        return tokens;\n    }\n\n}",
  "sourcePath": "/Users/webskitters/non-academy-nft-marketplace/nft/contracts/NftMarketplace.sol",
  "compiler": {
    "name": "solc",
    "version": "0.8.19+commit.7dd6d404.Emscripten.clang"
  },
  "schemaVersion": "3.4.16",
  "updatedAt": "2024-02-05T13:53:40.075Z",
  "networkType": "ethereum",
  "devdoc": {
    "events": {
      "Approval(address,address,uint256)": {
        "details": "Emitted when `owner` enables `approved` to manage the `tokenId` token."
      },
      "ApprovalForAll(address,address,bool)": {
        "details": "Emitted when `owner` enables or disables (`approved`) `operator` to manage all of its assets."
      },
      "BatchMetadataUpdate(uint256,uint256)": {
        "details": "This event emits when the metadata of a range of tokens is changed. So that the third-party platforms such as NFT market could timely update the images and related attributes of the NFTs."
      },
      "MetadataUpdate(uint256)": {
        "details": "This event emits when the metadata of a token is changed. So that the third-party platforms such as NFT market could timely update the images and related attributes of the NFT."
      },
      "Transfer(address,address,uint256)": {
        "details": "Emitted when `tokenId` token is transferred from `from` to `to`."
      }
    },
    "kind": "dev",
    "methods": {
      "approve(address,uint256)": {
        "details": "See {IERC721-approve}."
      },
      "balanceOf(address)": {
        "details": "See {IERC721-balanceOf}."
      },
      "getApproved(uint256)": {
        "details": "See {IERC721-getApproved}."
      },
      "isApprovedForAll(address,address)": {
        "details": "See {IERC721-isApprovedForAll}."
      },
      "name()": {
        "details": "See {IERC721Metadata-name}."
      },
      "ownerOf(uint256)": {
        "details": "See {IERC721-ownerOf}."
      },
      "safeTransferFrom(address,address,uint256)": {
        "details": "See {IERC721-safeTransferFrom}."
      },
      "safeTransferFrom(address,address,uint256,bytes)": {
        "details": "See {IERC721-safeTransferFrom}."
      },
      "setApprovalForAll(address,bool)": {
        "details": "See {IERC721-setApprovalForAll}."
      },
      "supportsInterface(bytes4)": {
        "details": "See {IERC165-supportsInterface}"
      },
      "symbol()": {
        "details": "See {IERC721Metadata-symbol}."
      },
      "tokenURI(uint256)": {
        "details": "See {IERC721Metadata-tokenURI}."
      },
      "transferFrom(address,address,uint256)": {
        "details": "See {IERC721-transferFrom}."
      }
    },
    "version": 1
  },
  "userdoc": {
    "kind": "user",
    "methods": {},
    "version": 1
  }
}